:100000000C9479000C9496000C9496000C94960035
:100010000C9496000C9486010C9496000C94960017
:100020000C9496000C9496000C9496000C949600F8
:100030000C9496000C9496000C9496000C949600E8
:100040000C9496000C9474010C9496000C949600F9
:100050000C9496000C9496000C9496000C949600C8
:100060000C9496000C9496000C9496000C949600B8
:100070000C9496000C9496000C9496000C949600A8
:100080000C9496000C9496000C9496000C94960098
:100090000C9496000C94960008000000BE9224492F
:1000A000123EABAAAA2ABECDCCCC4C3E00000080AA
:1000B000BEABAAAAAA3E00000000BF000000803F1D
:1000C0000000000000084178D3BB4387D1133D19DD
:1000D0000E3CC3BD4282AD2B3E68EC8276BED98F0A
:1000E000E1A93E4C80EFFFBE01C4FF7F3F0000004E
:1000F000000011241FBECFEFD0E1DEBFCDBF11E065
:10010000A0E0B1E0E0E9FBE002C005900D92A4336D
:10011000B107D9F721E0A4E3B1E001C01D92AB33F0
:10012000B207E1F70E94B2010C94C6050C940000DE
:1001300092B171987098729A82B9729892B980EF60
:100140008A95F1F70895811181E0603108F06FE040
:100150008093340160933501813011F080E801C053
:1001600080EC862B0E9498008FE39FE10197F1F7C6
:1001700000C00000089581E00E94980060E080E0E7
:100180000C94A300CF93DF93D82FC2B18091350197
:10019000803168F080913401882329F00E94BB00EF
:1001A00060E080E002C060E081E00E94A3007198FE
:1001B000709A729AD2B9729880EF8A95F1F780910D
:1001C00035018F5F80933501C2B9DF91CF910895DA
:1001D000CF93DF93EC018991882319F00E94C2002C
:1001E000FACFDF91CF9108958FEF81B9EFE1FEE46F
:1001F0003197F1F700C0000011B812B8689A699AF7
:100200006A9A709871987298EFE5FAEE3197F1F763
:1002100000C0000081B980E30E94980080E30E9442
:10022000980080E30E94980088E30E94980086E08E
:100230000E94980088E10E9498008CE00E9498003B
:10024000E4E3F1E0118210820C94BB00CF93DF93C2
:10025000CDB7DEB727970FB6F894DEBF0FBECDBF80
:100260004AE0BE016F5F7F4F0E9445031F82CE01AF
:1002700001960E94E80027960FB6F894DEBF0FBEE5
:10028000CDBFDF91CF910895CF93DF939091360149
:10029000E3E0F0E0E81BF109E050FF4F81E0E330DC
:1002A000F80711F09193FACFC0910001D0E064E01B
:1002B00081E00E94A300CE010E942601C0910101AD
:1002C000D0E065E081E00E94A300CE010E942601FB
:1002D000C0910201D0E066E081E00E94A300CE015F
:1002E000DF91CF910C9426011F920F920FB60F92BF
:1002F00011248F93809136018F5F87708093360130
:100300008F910F900FBE0F901F9018951F920F9214
:100310000FB60F9211245F936F937F938F939F93E8
:10032000AF93BF9380913701811110C082B1809546
:1003300082B980913A0190E0019666E070E00E94F7
:100340009E0580933A018AE080933701BF91AF9177
:100350009F918F917F916F915F910F900FBE0F9042
:100360001F901895CF93DF93CDB7DEB727970FB6C1
:10037000F894DEBF0FBECDBF0E94F4000E94BB0008
:1003800073983E986F986E986D986C98469A779A85
:10039000769A759A749A1FEF11B912B80E94F400F8
:1003A0000E94BB0011B9739A6C98749A80916A008C
:1003B000826080936A0080916A008E7F80936A00D9
:1003C000EC9A8FB780688FBF8FB780688FBF80919E
:1003D0006F00826080936F00809180008E7F809399
:1003E0008000809180008D7F8093800080918100CB
:1003F000886080938100809181008F7E809381004E
:10040000809181008E7F80938100809181008D7F1B
:10041000809381008091810084608093810081E6D7
:1004200091E590938900809388003FE0732E43E02C
:10043000C42ED12C52E0652E00913A0110E066E006
:1004400080E00E94A3004AE0BE016F5F7F4FC801B9
:100450000E9445031F82CE0101960E94E800809110
:100460003A018130B1F4809103019091040183300D
:10047000910564F0D0923901C092380103979093AE
:1004800004018093030160923A0103C08AE08093E3
:100490003A0180913A01823019F483E00E944401CC
:1004A00080913A01833019F482E00E9444018091E6
:1004B0003A01843019F481E00E94440180913A01AC
:1004C000853001F5E0910001F0E0EB5FFE4F8081A7
:1004D000E0910101F0E0EB5FFE4F908589130CC0C5
:1004E000E0910201F0E0EB5FFE4F9089891304C0B8
:1004F00086E080933A0106C01092390110923801CB
:1005000010923A0180913A01863021F5109239011A
:100510001092380180910301909104010796909305
:100520000401809303010E94BB0060E080E00E9410
:10053000A3008DE191E00E94E8002FEF33ED80E30E
:10054000215030408040E1F700C000000E94BB0015
:1005500010923A0180913A018A30B9F40E94BB00AE
:1005600060E080E00E94A30085E291E00E94E80044
:100570009FEFA3EDB0E39150A040B040E1F700C081
:1005800000000E94BB0010923A0120E0E22E21E020
:10059000F22E00E010E04701F70181917F018770A2
:1005A000F80193E0EE0FFF1F9A95E1F79F012B5F93
:1005B0003E4F5901F901E80FF11D5080602F80E096
:1005C0000E94A300852D0E94C200D401EC91F0E0AE
:1005D0003196E770FF27EA0DFB1DB080602F81E0A8
:1005E0000E94A3008B2D0E94C2000F5F1F4F03309B
:1005F000110589F60091380110913901B801012ED9
:10060000000C880B990B0E94AB030E940F040E9400
:100610007A03B72DB61B6B2F80E00E94A3004AE03F
:10062000BE016F5F7F4FC8010E9445031F82CE014C
:1006300001960E94E8000091030110910401B801A5
:10064000012E000C880B990B0E94AB030E940F0433
:100650000E947A03E72DE61B6E2F81E00E94A30023
:100660004AE0BE016F5F7F4FC8010E9445031F82B1
:10067000CE0101960E94E80080913701882309F499
:10068000DBCE815080933701D7CEBB274A3031F47F
:10069000992322F4BDE2909581959F4F0C945103CC
:1006A000BB27FB015527AA27880F991FAA1FA4174C
:1006B00010F0A41B83955051B9F7A05DAA3308F040
:1006C000A95DA193009779F7B111B1931192CB0174
:1006D0000C946A03DC01FC01672F71917723E1F729
:1006E000329704C07C916D9370836291AE17BF07FF
:1006F000C8F308950E94EE0388F09F5798F0B92F31
:100700009927B751B0F0E1F0660F771F881F991F46
:100710001AF0BA95C9F714C0B13091F00E940804DC
:10072000B1E008950C940804672F782F8827B85FEC
:1007300039F0B93FCCF3869577956795B395D9F79E
:100740003EF490958095709561957F4F8F4F9F4FA8
:100750000895E89409C097FB3EF4909580957095B4
:1007600061957F4F8F4F9F4F9923A9F0F92F96E9FD
:10077000BB279395F695879577956795B795F11172
:10078000F8CFFAF4BB0F11F460FF1BC06F5F7F4F0F
:100790008F4F9F4F16C0882311F096E911C0772321
:1007A00021F09EE8872F762F05C0662371F096E82A
:1007B000862F70E060E02AF09A95660F771F881FF9
:1007C000DAF7880F9695879597F9089557FD905811
:1007D000440F551F59F05F3F71F04795880F97FB05
:1007E000991F61F09F3F79F08795089512161306BF
:1007F0001406551FF2CF4695F1DF08C016161706EE
:100800001806991FF1CF8695710561050894089522
:10081000E894BB2766277727CB0197F908950E94B4
:100820001F0429ED3BE54EED5EE30C94670416F0E2
:100830000C9447050C94550568940C9441050E944E
:10084000EE03A8F39923C1F3AEF3DF93CF931F9385
:100850000F93FF92C92FDD2788232AF02197660F77
:10086000771F881FDAF720E030E040E85FEB9FE376
:10087000883920F0803E38F021968F770E94D50489
:10088000E8E9F0E004C00E94D504E5ECF0E00E9445
:1008900058058B01BE01EC01FB2E6F577109759550
:1008A000771F880B990B0E94AB0328E132E741E3E5
:1008B0005FE30E947A04AF2D9801AE01FF900F9183
:1008C0001F91CF91DF910E94EC040C948D050E9442
:1008D0007A040C948D050E947F0538F00E948605ED
:1008E00020F0952311F00C9441050C94550511242A
:1008F0000C9409040E94E60370F3959FC1F3950FD1
:1009000050E0551F629FF001729FBB27F00DB11D93
:10091000639FAA27F00DB11DAA1F649F6627B00D23
:10092000A11D661F829F2227B00DA11D621F739F0C
:10093000B00DA11D621F839FA00D611D221F749F1A
:100940003327A00D611D231F849F600D211D822F61
:10095000762F6A2F11249F5750409AF0F1F0882388
:100960004AF0EE0FFF1FBB1F661F771F881F9150B5
:100970005040A9F79E3F510580F00C9441050C941E
:1009800009045F3FE4F3983ED4F386957795679525
:10099000B795F795E7959F5FC1F7FE2B880F911DDF
:1009A0009695879597F908955058BB27AA270E94D6
:1009B000EC040C948D050E947F0538F00E9486059A
:1009C00020F039F49F3F19F426F40C9455050EF4E9
:1009D000E095E7FB0C944105E92F0E94E60358F3EC
:1009E000BA17620773078407950720F079F4A6F514
:1009F0000C9408040EF4E0950B2EBA2FA02D0B01D9
:100A0000B90190010C01CA01A0011124FF27591B53
:100A100099F0593F50F4503E68F11A16F040A22F59
:100A2000232F342F4427585FF3CF469537952795CA
:100A3000A795F0405395C9F77EF41F16BA0B620BC9
:100A4000730B840BBAF09150A1F0FF0FBB1F661F10
:100A5000771F881FC2F70EC0BA0F621F731F841F53
:100A600048F4879577956795B795F7959E3F08F079
:100A7000B0CF9395880F08F09927EE0F979587953B
:100A8000089597F99F6780E870E060E008959F3FC0
:100A900031F0915020F4879577956795B795880F39
:100AA000911D9695879597F908959FEF80EC08958D
:100AB000DF93CF931F930F93FF92EF92DF927B010F
:100AC0008C01689406C0DA2EEF010E947A04FE01C0
:100AD000E894A5912591359145915591A6F3EF01A3
:100AE0000E94EC04FE019701A801DA9469F7DF90F7
:100AF000EF90FF900F911F91CF91DF910895002407
:100B00000A941616170618060906089500240A9472
:100B100012161306140605060895092E0394000CF8
:100B200011F4882352F0BB0F40F4BF2B11F460FF87
:100B300004C06F5F7F4F8F4F9F4F089597FB072E25
:100B400016F4009407D077FD09D00E94B20507FC87
:100B500005D03EF4909581959F4F089570956195CD
:100B60007F4F0895AA1BBB1B51E107C0AA1FBB1FE3
:100B7000A617B70710F0A61BB70B881F991F5A9529
:100B8000A9F780959095BC01CD010895F894FFCF09
:100B90000101010300616263646566676862636105
:100BA00064666867656862636564676661596F75E6
:100BB00020776F6E004E6F206D6F726520636F69D6
:040BC0006E7321002F
:00000001FF
