:10E000004BC000008BC0000089C0000087C000002A
:10E0100085C0000083C0000081C000007FC00000F8
:10E020007DC000007BC0000055C4000010C400008B
:10E0300075C0000073C0000071C000006FC0000018
:10E040006DC000006BC0000069C0000067C0000028
:10E0500073C6000063C0000061C000005FC0000024
:10E060005DC000005BC0000059C0000057C0000048
:10E0700055C0000053C0000051C000004FC0000058
:10E080004DC000004BC0000049C0000047C0000068
:10E0900045C0000043C0000011241FBECFEFD0E1F7
:10E0A000DEBFCDBF8FEF81B912B86D98759A8FE33F
:10E0B0009CE90197F1F700C000004CB1759820E091
:10E0C00030E0F9018591949145FF12C0019681F0ED
:10E0D00084B7877F84BF0FB6F894A89580916000BD
:10E0E000886180936000109260000FBEF90109956D
:10E0F00012E0A0E0B1E0EAE8F3EF02C005900D9273
:10E10000A632B107D9F722E0A6E2B2E001C01D9223
:10E11000A533B207E1F71FD60C94C37971CF2091D4
:10E12000E4003091E50095E64091EC00842F817089
:10E1300040FF22C08091E80080FD1CC08EB3882380
:10E1400099F0853099F08091EB0085FD11C04091E8
:10E15000E4005091E5002417350731F3915011F098
:10E160009A01E2CF84E0089582E0089583E0089563
:10E1700081E0089580E008954091E80042FFDECFFD
:10E1800008950F931F93CF93DF938C01C8DF811104
:10E1900017C0C0E0D0E0C017D10788F48091E80034
:10E1A00085FD09C08091E8008E778093E800B7DF95
:10E1B000882389F305C01092F1002196ECCF80E00E
:10E1C000DF91CF911F910F91089580912D0287FFCC
:10E1D0000FC08091E80082FD04C08EB38111F9CF99
:10E1E00010C08091E8008B770AC08EB3882349F075
:10E1F0008091E80080FFF9CF8091E8008E778093CE
:10E20000E80008958F708093E900EBEEF0E08081E4
:10E2100081608083EDEEF0E010826093EC0040833B
:10E220008091EE00881F8827881F0895FC01608177
:10E23000611102C081E008952481A181B28193819E
:10E24000862F8F70873010F080E00895223010F410
:10E2500042E001C046E0E8E0F0E020E0EA17FB071A
:10E2600020F42F5FEE0FFF1FF9CF2295207F422B66
:10E2700050E4959F90011124661F6627661F622B4C
:10E28000C1DF8111D7CFE0CFCF92DF92EF92FF9223
:10E290000F931F93CF93DF93EC018B017A013FDF44
:10E2A000811132C0E114F10439F0F70180819181CC
:10E2B000081B190BC80FD91FC12CD12C0115110532
:10E2C00011F18091E80085FD15C08091E8008B7701
:10E2D0008093E800E114F10449F0F7018081918115
:10E2E000C80ED91ED182C08285E00EC018DF8823F7
:10E2F00029F30AC08091F100899301501109FFEFC1
:10E30000CF1ADF0ADBCF80E0DF91CF911F910F9111
:10E31000FF90EF90DF90CF900895CF92DF92EF9231
:10E32000FF920F931F93CF93DF93EC018B017A0140
:10E33000F6DE811132C0E114F10439F0F701808179
:10E340009181081B190BC80FD91FC12CD12C0115A5
:10E35000110511F18091E80085FD15C08091E8005C
:10E360008E778093E800E114F10449F0F701808191
:10E370009181C80ED91ED182C08285E00EC0CFDE49
:10E38000882329F30AC089918093F1000150110973
:10E39000FFEFCF1ADF0ADBCF80E0DF91CF911F9133
:10E3A0000F91FF90EF90DF90CF900895611520EED0
:10E3B00072078105910528F421E0611120E0822F88
:10E3C00001C080E081700895CF93EDE2F2E085E333
:10E3D00092E02091F10021938E179F07D1F7809151
:10E3E000E80083FF36C08091020190E02091310265
:10E3F000309132022817390761F580912E028E3F45
:10E4000081F08F3F31F580912D02813211F580919D
:10E41000E800877F8093E800D8DE81E080933A01AE
:10E4200018C080912D02813AA1F48091E800877F85
:10E430008093E8008091E80080FFFCCF80910D017F
:10E4400081508093F1008091E8008E778093E800FE
:10E45000BCDE8091E80083FFE5C080912D029091A1
:10E460002E02953009F46FC030F4913071F168F0EC
:10E47000933059F1D7C0983009F493C0993009F41A
:10E48000A0C0963009F0CEC07FC0803899F08238A5
:10E4900009F0C8C0809131028F70873008F0C2C087
:10E4A0008093E9008091EB0085FB882780F910922A
:10E4B000E90001C080E09091E800977F9093E80028
:10E4C0008093F1001092F10078C0282F2D7F09F081
:10E4D000A9C0823009F0A6C080912F0281112AC004
:10E4E000809131028F702FEF280F263008F09AC0EC
:10E4F0008093E9002091EB0020FF1CC0933021F4B1
:10E500008091EB00806214C09091EB009061909339
:10E51000EB0021E030E0A90102C0440F551F8A95AD
:10E52000E2F74093EA001092EA008091EB008860E5
:10E530008093EB001092E9008091E800877F809340
:10E54000E80043DE6FC081116DC0C0912F02CF770C
:10E550008091E30080788C2B8093E3008091E80029
:10E56000877F8093E80031DE8091E80080FFFCCF58
:10E570008091E30080688093E300C11102C082E0D3
:10E5800001C083E08EBB4EC08058823008F04AC084
:10E5900080913002813009F454C0823009F042C0C9
:10E5A00055C0803809F03EC08091E800877F809395
:10E5B000E80080912C028093F1008091E8008E7732
:10E5C000BECF81112FC080912F02909130029927E8
:10E5D000029744F58091E800877F8093E800C0911E
:10E5E0002F02C0932C02F1DDC11106C08091E3001F
:10E5F00087FD02C081E001C084E08EBB8DE2EEE0C9
:10E60000F1E0DF011D928A95E9F782E0809306012F
:10E6100080930B0183E091E009DE882319F088E004
:10E6200091E004DE8091E80083FF66C08091E800FD
:10E63000877F8093E8008091EB0080628093EB00FD
:10E640005BC022E130E0EFEEF1E004C020E230E018
:10E65000EFECF1E08091E800877F8093E800809103
:10E660003302909134022817390708F4C90140E0B9
:10E67000009761F12EB32223C9F12530B9F1209121
:10E68000E80023FD33C02091E80022FD2BC020913B
:10E69000E80020FFEDCF2091F2003091F3000097C9
:10E6A00051F02830310538F441914093F100019741
:10E6B0002F5F3F4FF4CF41E02830310509F040E0B3
:10E6C0002091E8002E772093E800D2CF4111D2CFDD
:10E6D00009C08EB3882351F0853041F08091E80065
:10E6E00083FD04C08091E80082FFF3CF8091E800B1
:10E6F0008B778093E80096CFCF910895CF93DF93E7
:10E70000CDB7DEB7D2500FB6F894DEBF0FBECDBF87
:10E710009C01CE01019640E052E0FC01BA01119249
:10E7200061507040E1F723303105C0F421303105EC
:10E7300008F52EE3E1E9F1E0DC0101900D922A9564
:10E74000E1F725E5C150DE4F2883CF5FD1402AEAAB
:10E75000C050DE4F2883C050D24011C02330310555
:10E7600071F420E2E1E7F1E0DC0101900D922A95DD
:10E77000E1F705C028EF29832FEF2A832B8340E0A0
:10E7800050E060E072E0C9DD8091E8008E77809310
:10E79000E800DE5F0FB6F894DEBF0FBECDBFDF919D
:10E7A000CF91089592B171987098729A82B97298C7
:10E7B00092B980EF8A95F1F70895811181E0603177
:10E7C00008F06FE08093280260932902813011F0F5
:10E7D00080E801C080EC862BE5DF8FE39FE10197A5
:10E7E000F1F700C00000089581E0DCDF60E080E028
:10E7F000E4CF0F931F93CF93DF938C01F801C19166
:10E800008F01CC23F9F0D2B180912902803158F0E8
:10E8100080912802882321F0E7DF60E080E002C0D9
:10E8200060E081E0CADF7198709A729AC2B97298FA
:10E8300080EF8A95F1F7809129028F5F80932902FA
:10E84000D2B9DCCFDF91CF911F910F9108951F9224
:10E850000F920FB60F9211242F933F934F935F9314
:10E860006F937F938F939F93AF93BF93CF93DF93D8
:10E87000EF93FF93C091E900CF708091EC00D82F07
:10E88000D17080FDD0E81092E9008091F000877F80
:10E890008093F000789498DD1092E9008091F00068
:10E8A00088608093F000CD2BCF70C093E900FF917A
:10E8B000EF91DF91CF91BF91AF919F918F917F9118
:10E8C0006F915F914F913F912F910F900FBE0F90DD
:10E8D0001F9018951F920F920FB60F9211242F932D
:10E8E0003F934F935F936F937F938F939F93AF93D8
:10E8F000BF93EF93FF938091DA0080FF19C080915E
:10E90000D80080FF15C08091DA008E7F8093DA00F6
:10E910008091D90080FF0AC088E189BD8AE189BD64
:10E9200009B400FEFDCF81E08EBB02C019BC1EBA47
:10E930008091E10080FF16C08091E20080FF12C04C
:10E940008091E2008E7F8093E2008091E2008061FE
:10E950008093E2008091D80080628093D80019BC37
:10E9600085E08EBB8091E10084FF2DC08091E200A4
:10E9700084FF29C088E189BD8AE189BD09B400FE10
:10E98000FDCF8091D8008F7D8093D8008091E100E9
:10E990008F7E8093E1008091E2008F7E8093E20081
:10E9A0008091E20081608093E20080912C028823B4
:10E9B00011F084E007C08091E30087FD02C081E090
:10E9C00001C083E08EBB8091E10083FF25C0809170
:10E9D000E20083FF21C08091E100877F8093E10006
:10E9E00082E08EBB10922C028091E1008E7F80939A
:10E9F000E1008091E2008E7F8093E2008091E2004E
:10EA000080618093E20042E060E080E0FBDB809187
:10EA1000F00088608093F000FF91EF91BF91AF917B
:10EA20009F918F917F916F915F914F913F912F9126
:10EA30000F900FBE0F901F9018959FB7F89407B6D0
:10EA400000FCFDCFF999FECF809529E0E1E0F0E0F0
:10EA5000082E20935700E8959FBF0895E1E0F0E06D
:10EA600089E0809357008491089529E0FC01209368
:10EA700057008491089521E2FC012093570084916E
:10EA8000089507B600FCFDCFF999FECF21E0FB0108
:10EA90000A0120935700E89511240895CF92DF9240
:10EAA000EF92FF926B017C0181DC8823A1F08FB78C
:10EAB000F89407B600FCFDCFF999FECF95E0F6017A
:10EAC00090935700E89507B600FCFDCF91E1909335
:10EAD0005700E8958FBFFF90EF90DF90CF9008959B
:10EAE000CF92DF92EF92FF926B017C015FDC882373
:10EAF000A1F08FB7F89407B600FCFDCFF999FECFCF
:10EB000093E0F60190935700E89507B600FCFDCF1F
:10EB100091E190935700E8958FBFFF90EF90DF90C1
:10EB2000CF9008954F925F926F927F928F929F92B3
:10EB3000AF92BF92CF92DF92EF92FF920F931F930B
:10EB4000CF93DF93CDB7DEB7D2500FB6F894DEBFC8
:10EB50000FBECDBF8C0140E050E060E072E0CE011E
:10EB6000019692DB8091E8008B778093E800033078
:10EB7000110508F46EC00330110541F410922B0208
:10EB800010922A0281E08093010163C0E0902A0282
:10EB9000F0902B0280E7E816F10408F05AC080914B
:10EBA0000101882309F455C0E114F104C9F48981F5
:10EBB000843749F48A81883031F48B818C3C19F494
:10EBC0008C81863919F01092010143C081E0809355
:10EBD000010181E090E090932B0280932A0239C0DA
:10EBE0004701E1E08E1A9108982C8824990C8E0137
:10EBF0000F5F1F4F5401FEEFBF1A2401612C712CCF
:10EC0000811003C0C301B2016BDFF801418150E004
:10EC1000542F44278081482BC301B20132DF6401A5
:10EC2000F2E0CF0ED11CC11006C0B4016E5F7109B5
:10EC300080E090E033DF0E5F1F4FCA14DB0411F059
:10EC40004601DBCF8FEFE81AF80AF0922B02E09230
:10EC50002A02DE5F0FB6F894DEBF0FBECDBFDF9194
:10EC6000CF911F910F91FF90EF90DF90CF90BF90C9
:10EC7000AF909F908F907F906F905F904F9008958E
:10EC8000DF92EF92FF920F931F93CF93DF93009148
:10EC900022011091210120912501C22F30912401E0
:10ECA000D32F0439110568F080913D01807F856084
:10ECB00080933D0181E2809347011092480180E0FA
:10ECC00033C0D82E7801C701801B910B8C179D078C
:10ECD00050F4C701DD2011F011DD01C023DF8FEFFB
:10ECE000E81AF80AF0CFCE01A0E0B0E029E0880FE2
:10ECF000991FAA1FBB1F2A95D1F740911601509169
:10ED0000170160911801709119018A019B01081B7C
:10ED1000190B2A0B3B0B009316011093170120933C
:10ED200018013093190181E0DF91CF911F910F916C
:10ED3000FF90EF90DF9008951F920F920FB60F9201
:10ED400011248F9382B1805882B98F910F900FBE9A
:10ED50000F901F901895CF93DF9300D0CDB7DEB7FB
:10ED60008FEF81B9EFE1FEE43197F1F700C00000C9
:10ED700011B812B8689A699A6A9A709871987298DC
:10ED8000EFE5FAEE3197F1F700C0000081B980E3BA
:10ED900009DD80E307DD80E305DD88E303DD86E050
:10EDA00001DD88E1FFDC8CE0FDDC1092290210928D
:10EDB00028021ADD739A63E080E0FFDC81E092E0D4
:10EDC00018DD60E081E0F9DC8BE092E012DD84B7D1
:10EDD000877F84BF0FB6F894A89580916000886102
:10EDE00080936000109260000FBE90E080E80FB644
:10EDF000F89480936100909361000FBE85B7982FBF
:10EE0000916095BF826085BF8091D8008F7E80938E
:10EE1000D8008091D70081608093D70081E08093F3
:10EE200026028091D8008C7F8093D8001092E20057
:10EE30001092DA001092E1008091D8008F778093D1
:10EE4000D8008091D80080688093D8008091D80045
:10EE50008F7D8093D8008091D70080688093D70001
:10EE600019BC1EBA10922C028091E0008B7F809317
:10EE7000E0008091D80081608093D80042E060E09B
:10EE800080E0C0D98091E1008E7F8093E100809185
:10EE9000E20081608093E2008091E20088608093CC
:10EEA000E2008091E0008E7F8093E0008091D800A6
:10EEB00080618093D8007894AA24A394B12CCC24A8
:10EEC000C39453E9952E65E5462E63E5562E62E41C
:10EED000662E752C70E2872E82E0282E94E2392E61
:10EEE00080910001882309F4F0C18EB3843009F0C9
:10EEF000D4C1809108018F708093E9009091E8005F
:10EF000092FF93C18093E9001A821982AE014F5F8C
:10EF10005F4F6FE070E08EE091E0B6D9853029F464
:10EF200080913A01882391F380C180910E019091E4
:10EF30000F01A0911001B091110185359345A244B4
:10EF4000B34479F490911B0180910D01981748F416
:10EF500080911A018F7129F480911C0181508031B8
:10EF600080F08091EB0080628093EB008091030140
:10EF70008F708093E9008091EB0080628093EB00BA
:10EF800054C11A82198260911C0170E0AE014F5F7A
:10EF90005F4F8DE191E078D9853029F480913A0175
:10EFA000882389F342C18091E8008B778093E80041
:10EFB000DD24D39480911A0187FF05C0809103015D
:10EFC0008F708093E90080911D018F31A0F48D3105
:10EFD00008F0D0C08231F1F138F4882309F4CAC0B6
:10EFE000833009F46FC0CFC08A3109F499C08B31E6
:10EFF00009F4B7C0C8C0883209F48DC020F5853245
:10F0000009F0C1C01092F1001092F1001092F100CD
:10F010009092F1001092F1001092F1002092F10014
:10F020001092F1008091E8008E778093E800809143
:10F03000160190911701A0911801B091190108973C
:10F04000A109B10985C08A3209F463C08F3209F47D
:10F0500091C099C0009121011091200178010532E1
:10F06000110518F034E2E32EF12C80911E0183701B
:10F0700021F480911F01882349F080913D01807F18
:10F08000856080933D013092470185C040E050E0AB
:10F09000B7018DE491E041D9C8018E199F0971D85B
:10F0A0008091E8008E778093E8008091160190911E
:10F0B0001701A0911801B09119018E199F09A1099A
:10F0C000B10946C0E0902101FE2C22E12E1510F47A
:10F0D00022E1F22E0F2D10E040E050E0B8018BE36A
:10F0E00091E01BD98E2D90E0801B910B4AD8809126
:10F0F000E8008E778093E8008091160190911701C7
:10F10000A0911801B09119018F199109A109B109B4
:10F110001FC080E001C081E0B3DD81113FC031C17B
:10F120001092F1001092F1001092F1001092F10093
:10F130008091E8008E778093E8008091160190918D
:10F140001701A0911801B09119010497A109B10903
:10F150008093160190931701A0931801B0931901A1
:10F160001DC080912101837091E0823009F490E00C
:10F17000909300011092160110921701109218013D
:10F18000109219010BC080913D01807F85608093B2
:10F190003D018092470110924801F3C080913D01EA
:10F1A000807F80933D011092470110924801109298
:10F1B00027028D2D8C258093390140922D0150928C
:10F1C0002E0160922F017092300180911201909176
:10F1D0001301A0911401B091150180933101909316
:10F1E0003201A0933301B0933401809116019091C4
:10F1F0001701A0911801B0911901809335019093E6
:10F200003601A0933701B0933801DD2009F488C09E
:10F21000809108018F708093E9008091EB0085FF59
:10F220008AC080913A018823C1F380913A018823F2
:10F23000A1F1909108019F709501092E01C0220F44
:10F240000A94EAF72093EA001092EA008091030101
:10F250008F709501082E01C0220F0A94EAF72093BF
:10F26000EA001092EA009093E9009091EB0090611F
:10F270009093EB009091EB0098609093EB0080935B
:10F28000E9008091EB0080618093EB008091EB00BE
:10F2900088608093EB0010923A018EB3882309F4C2
:10F2A0001FCE1091E9001F709091EC00892F8170A2
:10F2B00090FD80E8182B1092E9008091E80083FD12
:10F2C00083D81F701093E90007CE8091270291E048
:10F2D000980F909327028F3F09F007CE85DA63E0FD
:10F2E00080E06BDA8CE192E084DA8FEF93EDE0E37B
:10F2F00081509040E040E1F700C0000075DA73985B
:10F300008091E00081608093E0009CE088E10FB68E
:10F31000F894A895809360000FBE90936000FFCF93
:10F32000892B8A2B8B2B09F473CF8091EB008062A1
:10F330008093EB006DCF809103018F708093E90083
:10F340008091EB0085FF05C080913A018823C1F3CD
:10F350006CCF1A821982AE014F5F5F4F6DE070E093
:10F360008DE291E00E948D71853029F480913A01FF
:10F37000882389F35ACF8091E8008E778093E80044
:0AF3800054CFD12C14CFF894FFCF26
:10F38A000101008340000001044000000101000067
:10F39A000000000000000000000000000000000063
:10F3AA000000000000000000000000000000000053
:10F3BA0000000000000000000000007000000000D3
:10F3CA0000000A00000000000000000000008000A9
:10F3DA00021F0000004457454E474F0000426F6F1E
:10F3EA00746C6F61646572000000000000302E309A
:10F3FA00304457454E4755494E4F202008000000DB
:10F40A0000000000000000000000000000000000F2
:10F41A0000EB3C906D6B646F73667300000204012D
:10F42A00000210009400F80100140002000000001D
:10F43A000000000000000029785634124457454E57
:10F44A004755494E4F202046415431322020200949
:10F45A00022000010100803209040000020806505F
:10F46A000007058302400005070504024000051253
:10F47A0001100100000008EB034520010000000014
:10F48A00014457454E4755494E4F005A657420620C
:10F49A00657374616E64206F7665720042657A697D
:06F4AA00672E2E2E2E003D
:10FFA0000C9470750C944E750C9441750C943B75C3
:10FFB0000C9435750C942E750C941D750895089548
:06FFC00008950895089564
:10FFE000DFCFE0CFE1CFE2CFE3CFE4CFE5CFE6CF85
:08FFF000E6CFE6CFE6CFE6CF35
:08FFF80000E0000030DFFBDC3B
:040000030000E00019
:00000001FF
