:10E000004BC000008BC0000089C0000087C000002A
:10E0100085C0000083C0000081C000007FC00000F8
:10E020007DC000007BC000004BC4000006C400009F
:10E0300075C0000073C0000071C000006FC0000018
:10E040006DC000006BC0000069C0000067C0000028
:10E050003AC6000063C0000061C000005FC000005D
:10E060005DC000005BC0000059C0000057C0000048
:10E0700055C0000053C0000051C000004FC0000058
:10E080004DC000004BC0000049C0000047C0000068
:10E0900045C0000043C0000011241FBECFEFD0E1F7
:10E0A000DEBFCDBF8FEF81B912B86D98759A8FE33F
:10E0B0009CE90197F1F700C000004CB1759820E091
:10E0C00030E0F9018591949145FF12C0019681F0ED
:10E0D00084B7877F84BF0FB6F894A89580916000BD
:10E0E000886180936000109260000FBEF90109956D
:10E0F00012E0A0E0B1E0E0E2F3EF02C005900D9283
:10E10000AC31B107D9F722E0ACE1B2E001C01D9219
:10E11000AB32B207E1F7E6D50C948E7971CF20913E
:10E12000E4003091E50095E64091EC00842F817089
:10E1300040FF22C08091E80080FD1CC08EB3882380
:10E1400099F0853099F08091EB0085FD11C04091E8
:10E15000E4005091E5002417350731F3915011F098
:10E160009A01E2CF84E0089582E0089583E0089563
:10E1700081E0089580E008954091E80042FFDECFFD
:10E1800008950F931F93CF93DF938C01C8DF811104
:10E1900017C0C0E0D0E0C017D10788F48091E80034
:10E1A00085FD09C08091E8008E778093E800B7DF95
:10E1B000882389F305C01092F1002196ECCF80E00E
:10E1C000DF91CF911F910F9108958091230287FFD6
:10E1D0000FC08091E80082FD04C08EB38111F9CF99
:10E1E00010C08091E8008B770AC08EB3882349F075
:10E1F0008091E80080FFF9CF8091E8008E778093CE
:10E20000E80008958F708093E900EBEEF0E08081E4
:10E2100081608083EDEEF0E010826093EC0040833B
:10E220008091EE00881F8827881F0895FC01608177
:10E23000611102C081E008952481A181B28193819E
:10E24000862F8F70873010F080E00895223010F410
:10E2500042E001C046E0E8E0F0E020E0EA17FB071A
:10E2600020F42F5FEE0FFF1FF9CF2295207F422B66
:10E2700050E4959F90011124661F6627661F622B4C
:10E28000C1DF8111D7CFE0CFCF92DF92EF92FF9223
:10E290000F931F93CF93DF93EC018B017A013FDF44
:10E2A000811132C0E114F10439F0F70180819181CC
:10E2B000081B190BC80FD91FC12CD12C0115110532
:10E2C00011F18091E80085FD15C08091E8008B7701
:10E2D0008093E800E114F10449F0F7018081918115
:10E2E000C80ED91ED182C08285E00EC018DF8823F7
:10E2F00029F30AC08091F100899301501109FFEFC1
:10E30000CF1ADF0ADBCF80E0DF91CF911F910F9111
:10E31000FF90EF90DF90CF900895CF92DF92EF9231
:10E32000FF920F931F93CF93DF93EC018B017A0140
:10E33000F6DE811132C0E114F10439F0F701808179
:10E340009181081B190BC80FD91FC12CD12C0115A5
:10E35000110511F18091E80085FD15C08091E8005C
:10E360008E778093E800E114F10449F0F701808191
:10E370009181C80ED91ED182C08285E00EC0CFDE49
:10E38000882329F30AC089918093F1000150110973
:10E39000FFEFCF1ADF0ADBCF80E0DF91CF911F9133
:10E3A0000F91FF90EF90DF90CF900895611520EED0
:10E3B00072078105910528F421E0611120E0822F88
:10E3C00001C080E081700895CF93E3E2F2E08BE238
:10E3D00092E02091F10021938E179F07D1F7809151
:10E3E000E80083FF36C08091010190E02091270270
:10E3F000309128022817390761F5809124028E3F59
:10E4000081F08F3F31F580912302813211F58091A7
:10E41000E800877F8093E800D8DE81E080933901AF
:10E4200018C080912302813AA1F48091E800877F8F
:10E430008093E8008091E80080FFFCCF80910C0180
:10E4400081508093F1008091E8008E778093E800FE
:10E45000BCDE8091E80083FFE5C0809123029091AB
:10E460002402953009F46FC030F4913071F168F0F6
:10E47000933059F1D7C0983009F493C0993009F41A
:10E48000A0C0963009F0CEC07FC0803899F08238A5
:10E4900009F0C8C0809127028F70873008F0C2C091
:10E4A0008093E9008091EB0085FB882780F910922A
:10E4B000E90001C080E09091E800977F9093E80028
:10E4C0008093F1001092F10078C0282F2D7F09F081
:10E4D000A9C0823009F0A6C08091250281112AC00E
:10E4E000809127028F702FEF280F263008F09AC0F6
:10E4F0008093E9002091EB0020FF1CC0933021F4B1
:10E500008091EB00806214C09091EB009061909339
:10E51000EB0021E030E0A90102C0440F551F8A95AD
:10E52000E2F74093EA001092EA008091EB008860E5
:10E530008093EB001092E9008091E800877F809340
:10E54000E80043DE6FC081116DC0C0912502CF7716
:10E550008091E30080788C2B8093E3008091E80029
:10E56000877F8093E80031DE8091E80080FFFCCF58
:10E570008091E30080688093E300C11102C082E0D3
:10E5800001C083E08EBB4EC08058823008F04AC084
:10E5900080912602813009F454C0823009F042C0D3
:10E5A00055C0803809F03EC08091E800877F809395
:10E5B000E800809122028093F1008091E8008E773C
:10E5C000BECF81112FC080912502909126029927FC
:10E5D000029744F58091E800877F8093E800C0911E
:10E5E0002502C0932202F1DDC11106C08091E30033
:10E5F00087FD02C081E001C084E08EBB8DE2EDE0CA
:10E60000F1E0DF011D928A95E9F782E08093050130
:10E6100080930A0182E091E009DE882319F087E007
:10E6200091E004DE8091E80083FF66C08091E800FD
:10E63000877F8093E8008091EB0080628093EB00FD
:10E640005BC022E130E0EEEEF1E004C020E230E019
:10E65000EEECF1E08091E800877F8093E800809104
:10E66000290290912A022817390708F4C90140E0CD
:10E67000009761F12EB32223C9F12530B9F1209121
:10E68000E80023FD33C02091E80022FD2BC020913B
:10E69000E80020FFEDCF2091F2003091F3000097C9
:10E6A00051F02830310538F441914093F100019741
:10E6B0002F5F3F4FF4CF41E02830310509F040E0B3
:10E6C0002091E8002E772093E800D2CF4111D2CFDD
:10E6D00009C08EB3882351F0853041F08091E80065
:10E6E00083FD04C08091E80082FFF3CF8091E800B1
:10E6F0008B778093E80096CFCF910895CF93DF93E7
:10E70000CDB7DEB7D2500FB6F894DEBF0FBECDBF87
:10E710009C01CE01019640E052E0FC01BA01119249
:10E7200061507040E1F723303105C0F421303105EC
:10E7300008F52EE3E0E9F1E0DC0101900D922A9565
:10E74000E1F725E5C150DE4F2883CF5FD1402AEAAB
:10E75000C050DE4F2883C050D24011C02330310555
:10E7600071F420E2E0E7F1E0DC0101900D922A95DE
:10E77000E1F705C028EF29832FEF2A832B8340E0A0
:10E7800050E060E072E0C9DD8091E8008E77809310
:10E79000E800DE5F0FB6F894DEBF0FBECDBFDF919D
:10E7A000CF91089592B171987098729A82B97298C7
:10E7B00092B980EF8A95F1F70895811181E0603177
:10E7C00008F06FE080931E0260931F02813011F009
:10E7D00080E801C080EC862BE5DF8FE39FE10197A5
:10E7E000F1F700C00000089581E0DCDF60E080E028
:10E7F000E4CFCF93DF93D82FC2B180911F02803135
:10E8000058F080911E02882321F0EEDF60E080E066
:10E8100002C060E081E0D1DF7198709A729AD2B93B
:10E82000729880EF8A95F1F780911F028F5F809335
:10E830001F02C2B9DF91CF9108951F920F920FB6B8
:10E840000F9211242F933F934F935F936F937F9376
:10E850008F939F93AF93BF93CF93DF93EF93FF93E8
:10E86000C091E900CF708091EC00D82FD17080FD6D
:10E87000D0E81092E9008091F000877F8093F0004B
:10E880007894A2DD1092E9008091F0008860809376
:10E89000F000CD2BCF70C093E900FF91EF91DF9195
:10E8A000CF91BF91AF919F918F917F916F915F9128
:10E8B0004F913F912F910F900FBE0F901F90189581
:10E8C0001F920F920FB60F9211242F933F934F93E5
:10E8D0005F936F937F938F939F93AF93BF93EF93C8
:10E8E000FF938091DA0080FF19C08091D80080FFEB
:10E8F00015C08091DA008E7F8093DA008091D90074
:10E9000080FF0AC088E189BD8AE189BD09B400FEA3
:10E91000FDCF81E08EBB02C019BC1EBA8091E10020
:10E9200080FF16C08091E20080FF12C08091E2005B
:10E930008E7F8093E2008091E20080618093E2000C
:10E940008091D80080628093D80019BC85E08EBB8E
:10E950008091E10084FF2DC08091E20084FF29C0F6
:10E9600088E189BD8AE189BD09B400FEFDCF8091AF
:10E97000D8008F7D8093D8008091E1008F7E8093B6
:10E98000E1008091E2008F7E8093E2008091E200BE
:10E9900081608093E20080912202882311F084E05C
:10E9A00007C08091E30087FD02C081E001C083E0E1
:10E9B0008EBB8091E10083FF25C08091E20083FF40
:10E9C00021C08091E100877F8093E10082E08EBBCF
:10E9D000109222028091E1008E7F8093E10080916D
:10E9E000E2008E7F8093E2008091E200806180935C
:10E9F000E20042E060E080E005DC8091F0008860A9
:10EA00008093F000FF91EF91BF91AF919F918F9113
:10EA10007F916F915F914F913F912F910F900FBE1A
:10EA20000F901F9018959FB7F89407B600FCFDCF84
:10EA3000F999FECF809529E0E1E0F0E0082E2093DF
:10EA40005700E8959FBF0895E1E0F0E089E08093EA
:10EA500057008491089529E0FC0120935700849188
:10EA6000089521E2FC01209357008491089507B690
:10EA700000FCFDCFF999FECF21E0FB010A012093B4
:10EA80005700E89511240895CF92DF92EF92FF92FC
:10EA90006B017C018BDC8823A1F08FB7F89407B65B
:10EAA00000FCFDCFF999FECF95E0F6019093570059
:10EAB000E89507B600FCFDCF91E190935700E895EB
:10EAC0008FBFFF90EF90DF90CF900895CF92DF92AD
:10EAD000EF92FF926B017C0169DC8823A1F08FB774
:10EAE000F89407B600FCFDCFF999FECF93E0F6014C
:10EAF00090935700E89507B600FCFDCF91E1909305
:10EB00005700E8958FBFFF90EF90DF90CF9008956A
:10EB10004F925F926F927F92AF92BF92CF92DF92AD
:10EB2000EF92FF920F931F93CF93DF93CDB7DEB792
:10EB3000D2500FB6F894DEBF0FBECDBF8C0140E0BF
:10EB400050E060E072E0CE0101969EDB8091E8002B
:10EB50008B778093E8000330110508F443C003303D
:10EB6000110529F410922102109220023BC08091DD
:10EB700020029091210280379105A0F55C01BA2C0A
:10EB8000AA24BB0C019690932102809320028E014F
:10EB90000F5F1F4F75018EEFF81A2501612C712C44
:10EBA000A11003C0C301B20191DFF801418150E01F
:10EBB000542F44278081482BC301B20158DF6501DF
:10EBC000F2E0CF0ED11CC11006C0B5016E5F710915
:10EBD00080E090E059DF0E5F1F4FCE14DF0411F08C
:10EBE0005601DBCFDE5F0FB6F894DEBF0FBECDBFA0
:10EBF000DF91CF911F910F91FF90EF90DF90CF9019
:10EC0000BF90AF907F906F905F904F900895DF928C
:10EC1000EF92FF920F931F93CF93DF930091210107
:10EC20001091200120912401C22F30912301D32F74
:10EC30000439110568F080913C01807F85608093E4
:10EC40003C0181E2809346011092470180E033C08D
:10EC5000D82E7801C701801B910B8C179D0750F4AB
:10EC6000C701DD2011F04ADD01C052DF8FEFE81A45
:10EC7000F80AF0CFCE01A0E0B0E029E0880F991F9C
:10EC8000AA1FBB1F2A95D1F740911501509116017B
:10EC900060911701709118018A019B01081B190BE3
:10ECA0002A0B3B0B009315011093160120931701BB
:10ECB0003093180181E0DF91CF911F910F91FF9068
:10ECC000EF90DF9008951F920F920FB60F921124CC
:10ECD0008F9382B1805882B98F910F900FBE0F90A1
:10ECE0001F901895CF93DF9300D0CDB7DEB78FEF8D
:10ECF00081B9EFE1FEE43197F1F700C0000011B8EF
:10ED000012B8689A699A6A9A709871987298EFE541
:10ED1000FAEE3197F1F700C0000081B980E342DDDF
:10ED200080E340DD80E33EDD88E33CDD86E03ADDE4
:10ED300088E138DD8CE036DD10921F0210921E0251
:10ED400053DD739A63E080E038DD00E012E0F80103
:10ED500081918F01882311F04CDDF9CF60E081E0D3
:10ED60002CDD0AE012E0F80181918F01882311F077
:10ED700040DDF9CF84B7877F84BF0FB6F894A8959C
:10ED800080916000886180936000109260000FBEE7
:10ED900090E080E80FB6F894809361009093610052
:10EDA0000FBE85B7982F916095BF826085BF809117
:10EDB000D8008F7E8093D8008091D70081608093A7
:10EDC000D70081E080931C028091D8008C7F8093D3
:10EDD000D8001092E2001092DA001092E1008091C7
:10EDE000D8008F778093D8008091D8008068809376
:10EDF000D8008091D8008F7D8093D8008091D70073
:10EE000080688093D70019BC1EBA109222028091AC
:10EE1000E0008B7F8093E0008091D8008160809338
:10EE2000D80042E060E080E0EDD98091E1008E7F83
:10EE30008093E1008091E20081608093E200809104
:10EE4000E20088608093E2008091E0008E7F8093F2
:10EE5000E0008091D80080618093D8007894AA2443
:10EE6000A394B12CCC24C39453E9952E65E5462E8A
:10EE700063E5562E62E4662E752C70E2872E82E0E2
:10EE8000282E94E2392E80910001882309F4F0C1E4
:10EE90008EB3843009F0D4C1809107018F708093C4
:10EEA000E9009091E80092FF93C18093E9001A82F3
:10EEB0001982AE014F5F5F4F6FE070E08DE091E02F
:10EEC000E3D9853029F480913901882391F380C1F9
:10EED00080910D0190910E01A0910F01B091100150
:10EEE00085359345A244B34479F490911A018091F9
:10EEF0000C01981748F4809119018F7129F48091C1
:10EF00001B018150803180F08091EB008062809302
:10EF1000EB00809102018F708093E9008091EB00FB
:10EF200080628093EB0054C11A82198260911B01A8
:10EF300070E0AE014F5F5F4F8CE191E0A5D9853065
:10EF400029F480913901882389F342C18091E80036
:10EF50008B778093E800DD24D3948091190187FF9B
:10EF600005C0809102018F708093E90080911C019F
:10EF70008F31A0F48D3108F0D0C08231F1F138F436
:10EF8000882309F4CAC0833009F46FC0CFC08A3126
:10EF900009F499C08B3109F4B7C0C8C0883209F4AC
:10EFA0008DC020F5853209F0C1C01092F100109299
:10EFB000F1001092F1009092F1001092F100109285
:10EFC000F1002092F1001092F1008091E8008E771C
:10EFD0008093E8008091150190911601A09117018E
:10EFE000B09118010897A109B10985C08A3209F4C6
:10EFF00063C08F3209F491C099C000912001109133
:10F000001F0178010532110518F034E2E32EF12CCE
:10F0100080911D01837021F480911E01882349F0A5
:10F0200080913C01807F856080933C013092460155
:10F0300085C040E050E0B7018CE491E06ED9C80192
:10F040008E199F099ED88091E8008E778093E80002
:10F050008091150190911601A0911701B0911801AE
:10F060008E199F09A109B10946C0E0902001FE2C2C
:10F0700022E12E1510F422E1F22E0F2D10E040E0D7
:10F0800050E0B8018AE391E048D98E2D90E0801BD2
:10F09000910B77D88091E8008E778093E80080917B
:10F0A000150190911601A0911701B09118018F19C7
:10F0B0009109A109B1091FC080E001C081E0A7DD6D
:10F0C00081113FC029C11092F1001092F1001092FD
:10F0D000F1001092F1008091E8008E778093E800B3
:10F0E0008091150190911601A0911701B09118011E
:10F0F0000497A109B1098093150190931601A0937B
:10F100001701B09318011DC080912001837091E018
:10F11000823009F490E09093000110921501109252
:10F12000160110921701109218010BC080913C013A
:10F13000807F856080933C01809246011092470158
:10F14000EBC080913C01807F80933C01109246018E
:10F150001092470110921D028D2D8C25809338014D
:10F1600040922C0150922D0160922E0170922F013D
:10F170008091110190911201A0911301B09114019D
:10F180008093300190933101A0933201B093330109
:10F190008091150190911601A0911701B09118016D
:10F1A0008093340190933501A0933601B0933701D9
:10F1B000DD2009F481C0809107018F708093E90000
:10F1C0008091EB0085FF83C0809139018823C1F3D2
:10F1D000809139018823A1F1909107019F709501D9
:10F1E000092E01C0220F0A94EAF72093EA00109238
:10F1F000EA00809102018F709501082E01C0220F54
:10F200000A94EAF72093EA001092EA009093E9004A
:10F210009091EB0090619093EB009091EB009860DF
:10F220009093EB008093E9008091EB0080618093E4
:10F23000EB008091EB0088608093EB001092390125
:10F240008EB3882309F41FCE1091E9001F709091AE
:10F25000EC00892F817090FD80E8182B1092E90056
:10F260008091E80083FDB0D81F701093E90007CEAD
:10F2700080911D0291E0980F90931D028F3F09F03D
:10F2800007CE8FEF90E7E2E081509040E040E1F759
:10F2900000C00000A9DA73988091E000816080933B
:10F2A000E0009CE088E10FB6F894A8958093600098
:10F2B0000FBE90936000FFCF892B8A2B8B2B09F414
:10F2C0007ACF8091EB0080628093EB0074CF8091C5
:10F2D00002018F708093E9008091EB0085FF05C0EB
:10F2E000809139018823C1F373CF1A821982AE014C
:10F2F0004F5F5F4F6DE070E08CE291E00ED885309B
:10F3000029F480913901882391F362CF8091E8003C
:10F310008E778093E8005CCFD12C1CCFF894FFCF80
:10F3200001008340000001044000000101000000D2
:10F3300000000000000000000000000000000000CD
:10F3400000000000000000000000000000000000BD
:10F35000000000000000000000007000000000003D
:10F36000000A000000000000000000000080000211
:10F370001F0000004457454E474F0000426F6F7416
:10F380006C6F61646572000000000000302E303048
:10F390004457454E4755494E4F2020080000000075
:10F3A000000000000000000000000000000000005D
:10F3B000EB3C906D6B646F73667300000204010098
:10F3C0000210009400F80100140002000000000088
:10F3D00000000000000029785634124457454E477B
:10F3E00055494E4F202046415431322020200902F9
:10F3F00020000101008032090400000208065000CC
:10F4000007058302400005070504024000051201BC
:10F41000100100000008EB0345200100000000017E
:10F420004457454E4755494E4F005A657420626512
:0CF430007374616E64206F7665720000DA
:10FFA0000C9466750C9444750C9437750C943175EB
:10FFB0000C942B750C9424750C9413750895089566
:06FFC00008950895089564
:10FFE000DFCFE0CFE1CFE2CFE3CFE4CFE5CFE6CF85
:08FFF000E6CFE6CFE6CFE6CF35
:08FFF80000E0000030DFFBDC3B
:040000030000E00019
:00000001FF
